:100000000C942A000C9447000C94A5020C94470011
:100010000C9447000C9447000C9447000C94470044
:100020000C9447000C9447000C9447000C94470034
:100030000C9447000C9447000C9463020C94470006
:100040000C9447000C9447000C9447000C94470014
:100050000C94470011241FBECFE5D4E0DEBFCDBF16
:1000600010E0A0E6B0E0E4E4F9E002C005900D92F3
:10007000A837B107D9F710E0A8E7B0E001C01D929A
:10008000AF39B107E1F70E949A030C94A0040C94D5
:10009000000082BB89EF90E00197F1F700C00000FB
:1000A00084E088BB89EF90E00197F1F700C0000081
:1000B00018BA83EC99E00197F1F700C000000895A9
:1000C0001F93182F807F0E94490089EF90E00197CD
:1000D000F1F700C00000812F8295807F0E944900C7
:1000E00089EF90E00197F1F700C000001F9108959B
:1000F00088E30E94490089EF90E00197F1F700C082
:10010000000081E00E94490089EF90E00197F1F73B
:1001100000C000008EE00E94490089EF90E0019746
:10012000F1F700C0000080E80E94490089EF90E0EC
:100130000197F1F700C00000089582E00E9460007E
:1001400089EF90E00197F1F700C0000088E20E947B
:10015000600089EF90E00197F1F700C000008CE0AB
:100160000E94600089EF90E00197F1F700C0000065
:1001700086E00E94600089EF90E00197F1F700C0EF
:10018000000080E80E94600089EF90E00197F1F79D
:1001900000C00000089582BB85E088BB89EF90E035
:1001A0000197F1F700C0000081E088BB83EC99E083
:1001B0000197F1F700C0000008951F93182F807F6A
:1001C0000E94CB0089EF90E00197F1F700C000009A
:1001D000812F8295807F0E94CB0089EF90E001976C
:1001E000F1F700C000001F9108950F931F93CF9364
:1001F000DF938C01C0E0D0E009C00E94CB002196C3
:10020000C031D10519F480EC0E944900F801EC0FCF
:10021000FD1F8081882389F7DF91CF911F910F9176
:1002200008950F931F93CF93DF938C01C0E0D0E02C
:1002300009C00E94DD002196C031D10519F480EC7F
:100240000E946000F801EC0FFD1F8081882389F770
:10025000DF91CF911F910F9108950F931F93CF932B
:10026000DF938B018130910571F480E80E94490091
:10027000C1E0D0E004C086E00E9449002196C0178A
:10028000D107CCF310C08230910569F480EC0E9454
:100290004900C1E0D0E004C086E00E9449002196F8
:1002A000C017D107CCF3DF91CF911F910F91089523
:1002B0009C01CB0101972130310521F480580E9427
:1002C000600008952230310519F480540E946000C6
:1002D000089581E00E944900089581E00E94600035
:1002E000089568E770E00E94040280917800982FDA
:1002F00092959F70990F292F220F220F290F8F702F
:10030000820F0895262F8F5F6330A1F0643028F4A8
:10031000613051F0623058F407C0653089F06530C3
:1003200060F06630B1F40FC08C3390F412C08831A5
:1003300078F40FC0883050F40CC08E3138F409C006
:100340008D3020F406C0843618F403C081E001C06B
:1003500080E06AE00E944F04682F6295607F692BFD
:10036000822F0E942B028FE19EE40197F1F700C0DB
:100370000000089582E080B983E081B986B7846087
:1003800086BF089584EA86BF06B607FEFDCF0895AE
:1003900084E986BF06B604FCFDCF089583B984E8DE
:1003A00086BF06B607FEFDCF81B1887F883159F040
:1003B00081B1887F883249F091B1987F81E0903493
:1003C00029F080E0089581E0089581E00895662392
:1003D00019F026B7206402C026B72F7B26BF26B7A8
:1003E000206826BF06B607FEFDCF21B1287F28353D
:1003F00021F021B1287F203529F423B1FC0120838D
:1004000081E0089580E008951F93CF93DF93182F24
:10041000EB010E94C20180ED0E94CE018823B1F061
:10042000812F0E94CE01882389F00E94C20181EDB4
:100430000E94CE01882351F0CE0160E00E94E701C6
:10044000882321F00E94C80181E001C080E0DF9193
:10045000CF911F9108950F931F93182F062F0E947D
:10046000C20180ED0E94CE01882371F0812F0E948D
:10047000CE01882349F0802F0E94CE01882321F0ED
:100480000E94C80181E001C080E01F910F91089592
:10049000462B47B9806C86B9349BFECF24B135B169
:1004A000932F80E030E0282B392BC9010895309339
:1004B0007C0020937B0040937A0067B9886C86B9F2
:1004C000089516B808951F920F920FB60F92112437
:1004D0002F933F934F935F936F937F938F939F934C
:1004E000AF93BF93EF93FF9364B125B1922F80E058
:1004F00070E0682B792BE0917B00F0917C0080917B
:1005000079000995809179008F5F809379009091AF
:100510007A00891710F01092790087B1807E90914F
:100520007900892B87B9369AFF91EF91BF91AF91EE
:100530009F918F917F916F915F914F913F912F91FB
:100540000F900FBE0F901F9018951F920F920FB62D
:100550000F9211242F933F934F935F938F939F9309
:1005600041E050E0829B02C040E050E050938700A1
:100570004093860021E030E0819B02C020E030E023
:10058000309392002093910080B390E080959095F5
:10059000817090709093890080938800220F331FA0
:1005A000880F991F880F991F282B392B242B352B47
:1005B00030938D0020938C009F918F915F914F918C
:1005C0003F912F910F900FBE0F901F90189580E0D4
:1005D0000E94710180938B0081E00E9471018093E1
:1005E0008E0082E00E9471018093900083E00E945F
:1005F00071018093850084E00E94710180939E00C8
:1006000085E00E94710180938A0086E00E9471015A
:1006100080939D0008951F938FEF91EEA4E0815089
:100620009040A040E1F700C000000E946D0181E011
:1006300090E061E070E00E945801809190001AE023
:10064000612F0E944F04805D0E94DD008091900028
:10065000612F0E944F04892F805D0E94DD008AE394
:100660000E94DD0080918E00612F0E944F04805D0A
:100670000E94DD0080918E00612F0E944F04892F1F
:10068000805D0E94DD008AE30E94DD0080918B0086
:10069000612F0E944F04805D0E94DD0080918B00DD
:1006A000612F0E944F04892F805D0E94DD008FE73B
:1006B00098E3A1E081509040A040E1F700C0000025
:1006C0001F91089585B7826085BF8BB780688BBF07
:1006D000089580E287B986E886B90895DF93CF93BD
:1006E0000F92CDB7DEB778941ABA11BA87E087BBFC
:1006F0001BBA12BA0E9469030E949D000E94BA01AF
:100700000E94620380E0BE016F5F7F4F0E9404027F
:1007100069816F77698380E00E942B020E94E70263
:100720000F90CF91DF91089597B18F70907F890FCF
:1007300087B908951F930E946E0381E090E061E005
:1007400070E00E94580180E690E00E94110182E072
:1007500090E069E070E00E94580187E690E00E9416
:1007600011012FEF34E34CE0215030404040E1F7DD
:1007700000C0000010928F0026C00E946D01809181
:100780008F0090E00E949403369A3699FECF15B1FF
:10079000812F90E063E970E04AE050E00E945B0442
:1007A00080918F00E82FF0E0E358FF4F10832FEF88
:1007B00039E648E1215030404040E1F700C00000F8
:1007C0008F5F80938F0080918F008830B0F280918E
:1007D0008C0090918D008430910509F454C08530CF
:1007E00091050CF050C08230910591F08330910555
:1007F00064F58130910509F046C00E946D0181E0E9
:1008000090E061E070E00E9458018FE690E030C017
:100810000E946D0181E090E061E070E00E9458016B
:1008200080917E0090E063E970E04AE050E00E9431
:100830005B0483E990E00E9411012FEF33ED40E368
:10084000215030404040E1F71CC00E946D0181E022
:1008500090E061E070E00E94580180917F0090E09C
:1008600063E970E04AE050E00E945B0483E990E0B5
:100870000E9411018FEF93EDA0E381509040A040C2
:10088000E1F700C0000010928D0010928C002FEF55
:1008900032E547E0215030404040E1F769CF991BF5
:1008A00079E004C0991F961708F0961B881F7A9567
:1008B000C9F780950895FB019F01E8944230C4F088
:1008C0004532B4F44A3029F497FB1EF49095819593
:1008D0009F4F642F77270E948C04805D8A330CF031
:1008E000895D8193CB010097A1F716F45DE25193E6
:1008F0001082C9010C947C04DC01FC01672F71910A
:100900007723E1F7329704C07C916D9370836291F5
:10091000AE17BF07C8F30895AA1BBB1B51E107C060
:10092000AA1FBB1FA617B70710F0A61BB70B881F7F
:10093000991F5A95A9F780959095BC01CD0108950E
:04094000F894FFCF59
:100944004469706C6F6D004976616E20532E006BA4
:080954006E6F706B6131000051
:00000001FF
